{
  "contractName": "SocialNetwork",
  "abi": [
    {
      "constant": true,
      "inputs": [],
      "name": "name",
      "outputs": [
        {
          "name": "",
          "type": "string"
        }
      ],
      "payable": false,
      "stateMutability": "view",
      "type": "function"
    },
    {
      "constant": true,
      "inputs": [
        {
          "name": "",
          "type": "uint256"
        }
      ],
      "name": "posts",
      "outputs": [
        {
          "name": "author",
          "type": "address"
        },
        {
          "name": "id",
          "type": "uint256"
        },
        {
          "name": "content",
          "type": "string"
        },
        {
          "name": "tipAmount",
          "type": "uint256"
        }
      ],
      "payable": false,
      "stateMutability": "view",
      "type": "function"
    },
    {
      "constant": true,
      "inputs": [],
      "name": "no_post",
      "outputs": [
        {
          "name": "",
          "type": "uint256"
        }
      ],
      "payable": false,
      "stateMutability": "view",
      "type": "function"
    },
    {
      "inputs": [],
      "payable": false,
      "stateMutability": "nonpayable",
      "type": "constructor"
    },
    {
      "anonymous": false,
      "inputs": [
        {
          "indexed": false,
          "name": "author",
          "type": "address"
        },
        {
          "indexed": false,
          "name": "id",
          "type": "uint256"
        },
        {
          "indexed": false,
          "name": "content",
          "type": "string"
        },
        {
          "indexed": false,
          "name": "tipAmount",
          "type": "uint256"
        }
      ],
      "name": "postCreated",
      "type": "event"
    },
    {
      "anonymous": false,
      "inputs": [
        {
          "indexed": false,
          "name": "author",
          "type": "address"
        },
        {
          "indexed": false,
          "name": "id",
          "type": "uint256"
        },
        {
          "indexed": false,
          "name": "content",
          "type": "string"
        },
        {
          "indexed": false,
          "name": "tipAmount",
          "type": "uint256"
        }
      ],
      "name": "postTip",
      "type": "event"
    },
    {
      "constant": false,
      "inputs": [
        {
          "name": "_content",
          "type": "string"
        }
      ],
      "name": "createPost",
      "outputs": [],
      "payable": false,
      "stateMutability": "nonpayable",
      "type": "function"
    },
    {
      "constant": false,
      "inputs": [
        {
          "name": "_id",
          "type": "uint256"
        }
      ],
      "name": "tipPost",
      "outputs": [],
      "payable": true,
      "stateMutability": "payable",
      "type": "function"
    }
  ],
  "bytecode": "0x6080604052600060025534801561001557600080fd5b506040518060400160405280600e81526020017f536f6369616c204e6574776f726b00000000000000000000000000000000000081525060009080519060200190610061929190610067565b5061010c565b828054600181600116156101000203166002900490600052602060002090601f016020900481019282601f106100a857805160ff19168380011785556100d6565b828001600101855582156100d6579182015b828111156100d55782518255916020019190600101906100ba565b5b5090506100e391906100e7565b5090565b61010991905b808211156101055760008160009055506001016100ed565b5090565b90565b610a8d8061011b6000396000f3fe60806040526004361061004a5760003560e01c806306fdde031461004f5780630b1e7f83146100df57806374d3c1f8146101d4578063c3adff5c14610202578063c7303c611461022d575b600080fd5b34801561005b57600080fd5b506100646102f5565b6040518080602001828103825283818151815260200191508051906020019080838360005b838110156100a4578082015181840152602081019050610089565b50505050905090810190601f1680156100d15780820380516001836020036101000a031916815260200191505b509250505060405180910390f35b3480156100eb57600080fd5b506101186004803603602081101561010257600080fd5b8101908080359060200190929190505050610393565b604051808573ffffffffffffffffffffffffffffffffffffffff1673ffffffffffffffffffffffffffffffffffffffff16815260200184815260200180602001838152602001828103825284818151815260200191508051906020019080838360005b8381101561019657808201518184015260208101905061017b565b50505050905090810190601f1680156101c35780820380516001836020036101000a031916815260200191505b509550505050505060405180910390f35b610200600480360360208110156101ea57600080fd5b810190808035906020019092919050505061047b565b005b34801561020e57600080fd5b506102176107a8565b6040518082815260200191505060405180910390f35b34801561023957600080fd5b506102f36004803603602081101561025057600080fd5b810190808035906020019064010000000081111561026d57600080fd5b82018360208201111561027f57600080fd5b803590602001918460018302840111640100000000831117156102a157600080fd5b91908080601f016020809104026020016040519081016040528093929190818152602001838380828437600081840152601f19601f8201169050808301925050505050505091929192905050506107ae565b005b60008054600181600116156101000203166002900480601f01602080910402602001604051908101604052809291908181526020018280546001816001161561010002031660029004801561038b5780601f106103605761010080835404028352916020019161038b565b820191906000526020600020905b81548152906001019060200180831161036e57829003601f168201915b505050505081565b60016020528060005260406000206000915090508060000160009054906101000a900473ffffffffffffffffffffffffffffffffffffffff1690806001015490806002018054600181600116156101000203166002900480601f01602080910402602001604051908101604052809291908181526020018280546001816001161561010002031660029004801561046b5780601f106104405761010080835404028352916020019161046b565b820191906000526020600020905b81548152906001019060200180831161044e57829003601f168201915b5050505050908060030154905084565b60008111801561048d57506002548111155b61049657600080fd5b61049e61097e565b600160008381526020019081526020016000206040518060800160405290816000820160009054906101000a900473ffffffffffffffffffffffffffffffffffffffff1673ffffffffffffffffffffffffffffffffffffffff1673ffffffffffffffffffffffffffffffffffffffff16815260200160018201548152602001600282018054600181600116156101000203166002900480601f0160208091040260200160405190810160405280929190818152602001828054600181600116156101000203166002900480156105b55780601f1061058a576101008083540402835291602001916105b5565b820191906000526020600020905b81548152906001019060200180831161059857829003601f168201915b5050505050815260200160038201548152505090506000816000015190508073ffffffffffffffffffffffffffffffffffffffff166108fc349081150290604051600060405180830381858888f19350505050158015610619573d6000803e3d6000fd5b5034826060015101826060018181525050816001600085815260200190815260200160002060008201518160000160006101000a81548173ffffffffffffffffffffffffffffffffffffffff021916908373ffffffffffffffffffffffffffffffffffffffff1602179055506020820151816001015560408201518160020190805190602001906106ab9291906109bc565b50606082015181600301559050507f2d62e8c1074f2d37fe23cd232c32dd1ccb841fe0c63911557608ada42c16fa008160025484604001518560600151604051808573ffffffffffffffffffffffffffffffffffffffff1673ffffffffffffffffffffffffffffffffffffffff16815260200184815260200180602001838152602001828103825284818151815260200191508051906020019080838360005b8381101561076657808201518184015260208101905061074b565b50505050905090810190601f1680156107935780820380516001836020036101000a031916815260200191505b509550505050505060405180910390a1505050565b60025481565b60008151116107bc57600080fd5b60026000815480929190600101919050555060405180608001604052803373ffffffffffffffffffffffffffffffffffffffff1681526020016002548152602001828152602001600081525060016000600254815260200190815260200160002060008201518160000160006101000a81548173ffffffffffffffffffffffffffffffffffffffff021916908373ffffffffffffffffffffffffffffffffffffffff16021790555060208201518160010155604082015181600201908051906020019061088a9291906109bc565b50606082015181600301559050507ff3d8c87c9cafe15fe89a2091ac927df0e3cf0ee97e9caa2d32986819016d084b33600254836000604051808573ffffffffffffffffffffffffffffffffffffffff1673ffffffffffffffffffffffffffffffffffffffff16815260200184815260200180602001838152602001828103825284818151815260200191508051906020019080838360005b8381101561093e578082015181840152602081019050610923565b50505050905090810190601f16801561096b5780820380516001836020036101000a031916815260200191505b509550505050505060405180910390a150565b6040518060800160405280600073ffffffffffffffffffffffffffffffffffffffff1681526020016000815260200160608152602001600081525090565b828054600181600116156101000203166002900490600052602060002090601f016020900481019282601f106109fd57805160ff1916838001178555610a2b565b82800160010185558215610a2b579182015b82811115610a2a578251825591602001919060010190610a0f565b5b509050610a389190610a3c565b5090565b610a5e91905b80821115610a5a576000816000905550600101610a42565b5090565b9056fea165627a7a72305820e5a86c0a6c82dbc542d20727f6617be1a59bfb4939ae618fe4427b8538a75f630029",
  "source": "pragma solidity ^0.5.0;\r\n\r\n/**\r\n * The SocialNetwork contract does this and that...\r\n */\r\ncontract SocialNetwork {\r\n\r\n    string public name;\r\n\r\n    mapping(uint => Post) public posts;\r\n    struct Post {\r\n\t    address payable author ;\r\n\t    uint id;\r\n\t    string content;\r\n\t    uint tipAmount;\r\n    }\r\n\r\n    event postCreated(address payable author, uint id , string content, uint tipAmount);\r\n    event postTip(address payable author, uint id , string content, uint tipAmount);\r\n\r\n    uint public no_post=0;\r\n\r\n    constructor() public\r\n\r\n    {\r\n        name=\"Social Network\";\r\n    }\r\n\r\n    function createPost(string memory _content) public {\r\n\t    \r\n\t    require (bytes(_content).length>0);\r\n\t    \r\n\t    no_post++;\r\n\r\n\t    posts[no_post] = Post(msg.sender,no_post,_content,0);\r\n        emit postCreated(msg.sender,no_post,_content,0);\r\n    }\r\n\r\n    function tipPost(uint _id) public payable{\r\n    \r\n       require (_id>0 && _id <=no_post);\r\n          \r\n    Post memory _post= posts[_id];\r\n\r\n    address payable _author=_post.author;\r\n\r\n    address(_author).transfer(msg.value);\r\n\r\n    _post.tipAmount=  _post.tipAmount+msg.value;\r\n\r\n    posts[_id]=_post;\r\n    emit postTip(_author,no_post,_post.content,_post.tipAmount);\r\n\r\n  \r\n}\r\n}\r\n\r\n\r\n",
  "sourcePath": "C:/Users/dell/social-network/src/contracts/SocialNetwork.sol",
  "compiler": {
    "name": "solc",
    "version": "0.5.8+commit.23d335f2.Emscripten.clang"
  },
  "schemaVersion": "3.0.11",
  "updatedAt": "2020-02-19T11:50:39.380Z",
  "devdoc": {
    "methods": {}
  },
  "userdoc": {
    "methods": {},
    "notice": "The SocialNetwork contract does this and that...\r"
  }
}